:020000040000FA
:06000000020C980202430D
:03002B00020A0EB8
:0300330002026561
:0300530002017D2A
:03006B000209285F
:03007B000207B9C0
:100083000201D4010100F0FF0700080000FFFF0098
:1000930000030400000F0100000300010020FD0025
:1000A3000200002812000000008C11B212F8116A3D
:1000B300120000B61100000000000000000000C2A2
:1000C3001100000000000000000000CE1106FFFF39
:1000D300FF00035F005F00300058000000000000D5
:1000E300000000000000000000000000000000000D
:1000F3000000000000000000000000D8052D062DC0
:10010300062D062D06350601040000261700000003
:10011300E8030000FFFFF617018813000003E8035C
:10012300000064006400B801A0BB0D00A0BB0D007B
:100133000202020704010101051E02051E020A0A4A
:100143000101010809080103B80B02803E0102FE08
:10015300FFE8030A050001FFFF0A011401E001059E
:10016300030101FF0F10FEFF172F000000004D2EAB
:1001730000000000FF000000FF00C0E074F2120561
:1001830079A2AFE433F508D2AFAFA7AEA1EE5F54C7
:10019300106006120F0A75A1EFEE5F540860081293
:1001A3000F1075A1F78023EEA2E092F0EFA2E08298
:1001B300F05017906198E0F8900561E0C398A2D2DF
:1001C30065D0335002E8F075A1FE751A00E508808A
:1001D30066C0E074F2120579A2AFE433FED2AF90A9
:1001E30061A4E0F8759B00E5915854086008759187
:1001F300F7120F5E8023E59158541060087591EF54
:10020300120F648014E591A2E092F0E8A2E082F07C
:100213005007E0C2E0F01210BA9061A3E0F8E5E9FC
:10022300585404600E12109075E9FB906193E0A29C
:10023300E640F2751A00EEA2E092AF7F01020635A6
:10024300C0E074F2120579A2AFE433FED2AF90613D
:10025300A5E0F8E5BF585404600675BFFB1210D241
:1002630080D1C0E074F1120579E59DA2E650FA90C1
:100273006206E0F9A2E25034AA2CEA90620BF0F590
:1002830008852D0974047808120CB7E508906207F5
:10029300F08A08852D0974097808120CB7E508540B
:1002A3003E906209F0906201E0D2E0F0E9782946DD
:1002B300F6906202E0F50875090074047808120BE1
:1002C300AF7829E50846F608E50946F6906204E0AA
:1002D300F50875090074097808120BAF782AE50947
:1002E30046F6E9A2E05003752B01740659600375C5
:1002F3002B00E58BA2E55006758BDF752B001216DC
:1003030042758B00C2E87F02020635C3E498F8E425
:1003130099F912034F8026C3E49AFAE49BFBE92080
:10032300E7E912034FE498F8E499F922C3E498F853
:10033300E499F912034FE498F8E499F9C3E49AFABB
:10034300E49BFB22EB20E7CFE920E7E0B90010BBF9
:100353000008E88AF084F8AAF022E4FBC8FA22EB4A
:1003630070227B10C833C8C933C9335007C39AC33B
:10037300DBF280069A50012ADBEAC833F4C8C9339A
:10038300F4C9FA2275F008E4C833C8C933C933C9BC
:100393009AC99B5004C92AC93BD5F0ECFBC833F476
:1003A300C8E4C9FA22080808EAC0E0EBC0E086F016
:1003B300E7A4FA180986F0E7A42AFA180986F0E7F1
:1003C300A42AFA180986F0E7A42AFA1986F0E7A402
:1003D300FBE5F02AFA190886F0E7A42BFBE5F03ACF
:1003E300FA190886F0E7A42BFBE5F03AFA18180986
:1003F30086F0E7A4C5F02BFBE43AFA1908E7C5F049
:10040300C6A426F6E5F03BFBE43AFA1886F0E7A427
:10041300F6E5F00826F6E43B08F6E43A08F6D0E001
:10042300FBD0E0FA22120D12B90003020488E4792A
:1004330021780DB800028004F709D8FCE49004D1B8
:10044300783979188002F0A3D8FCD9FA781A900089
:10045300867A01BA00028007E493A3F608DAF97AF0
:10046300097B1C90008778F779018015E493A3AD8D
:1004730082AE838A828B83F0A3AA82AB838D828E22
:1004830083D8E9D9E775825D7583F274061209F0A2
:1004930075824A75832C74001209F0E4CFC0E0E43E
:1004A300CEC0E0E4CDC0E0E4CCC0E075F020E626A9
:1004B300F608E633F608E633F608E633F6181818B6
:1004C300EC33FCED33FDEE33FEEF33FFC3EC970962
:1004D300ED9709EE9709EF97191919400FFFEC975C
:1004E300FC09ED97FD09EE97FE191906D5F0BFEC4F
:1004F300F709EDF709EEF709EFF7191919D0E0FC41
:10050300D0E0FDD0E0FED0E0FF222518C582C0E098
:10051300E51934FFC583C0E0E518C3958224F810BC
:10052300AF08858319858218800885831985821809
:10053300D2AFCEF0A3E520F0A37808E608F0A3DE5F
:10054300FAEFF0A3E58124FAF8E608F0A3E608F051
:10055300A3E608F0A30808E608F0A3E608F0A3154D
:10056300811581D0E0FED0E0F8158115811581E871
:10057300C0E0EEC0E022C0D02518C582C0E0E51976
:1005830034FFC583C0E0E518C3958224F310AF0898
:100593008583198582188008858319858218D2AFCF
:1005A300C8F0A3E9F0A3EAF0A3EBF0A37908E70905
:1005B300F0A3D8FAECF0A3EDF0A3EEF0A3EFF0A3D1
:1005C300D0E0F0A3D0E0F0A3D0E0F0A3E520F0A3C7
:1005D300E5F0F0A32212010002020000205104A85A
:1005E30016090001020301090243000201008019F8
:1005F3000904000001020201000524001001042483
:1006030002020524060001052401000107058203F7
:1006130040004009040100020A00000007058402AB
:1006230040000007050402400000F3050000160621
:100633000000851983851882E0C0E0A3E0F9A3E0F8
:10064300FAA3E0FBA37808E0F608A3DFFAE0FCA333
:10065300E0FDA3E0FEA3E0FFA3E0C0E0A3E0C0E071
:10066300A3E0F5D0A3E0F520A3E0A3F5F010AF08D5
:100673008583198582188008858319858218D2AFEE
:10068300D082D083D0E0F8D0E032E4730575F01067
:100693008E218F228582268583258518828519835D
:1006A300E0CEA3E0CF852682852583EBC9EAC8ED9A
:1006B300CBECCAC3E833C8E933C9EA33CAEB33CB5B
:1006C300C3EA9EF524EB9FF523B35004AB23AA247E
:1006D300EC33CCED33CDD5F0DAAE21AF2222D0838B
:1006E300D082ECC0E0EDC0E0E493A3FCE493A3FD6F
:1006F300ED4C600D1207FCEC24FFFCED34FFFD8094
:10070300EFE493A3FCE493A3FDED4C600D1208D337
:10071300EC24FFFCED34FFFD80EFD0E0FDD0E0FCE6
:10072300E493A3C0E0E493C0E022D083D082E9C085
:10073300E0E493A3C386F0C5F095F0F908E493A32E
:1007430086F0C5F095F0700BE493A3C3994005E9D7
:10075300048002A3E475F002A42582F582E5F03556
:1007630083F583D0E0F9E493A3C0E0E493C0E022EF
:10077300851983851882E0A3FEE0A3F5207808E0BD
:10078300A3F608DFFAE0A3FFE0A3C0E0E0A3C0E024
:10079300E0A3C0E0E0A3C0E0E0A3C0E010AF0885A1
:1007A30082188583198008858218858319D2AFD072
:1007B30083D0820209F6C0E074F2120579A2AFE495
:1007C30033FED2AFE58AA2E25007900522E0D2E0E1
:1007D300F0E58AA2E35007900522E0D2E1F0758AA2
:1007E30000C2EB7A107B0090051EE0F91213E4EED1
:1007F300A2E092AF7F01020635C0E0C3E4939608FE
:100803007401939618400FE493667008087401937B
:10081300661870007019A3A3C3E493960874019338
:100823009618A3A3400DD0E0D0E0D0E002071DA3AB
:10083300A3A3A3A3A3D0E022D083D082C5F0E493E3
:10084300A3C5F0C395F0F5F0E493A3C395F0400579
:10085300E5F0048001E475F002A42582F582E5F059
:100863003583F583E493A3C0E0E493C0E0227404EA
:1008730080087403800474028000CCC0E0EDC0E003
:10088300E518C39CCCAD1950011D10AF068C188D13
:100893001980068C188D19D2AF120972D0E0FDD0E1
:1008A300E0FC2274028000CCC0E0EDC0E0E518C398
:1008B3009CCCAD1950011D10AF068C188D19800604
:1008C3008C188D19D2AF120950D0E0FDD0E0FC2274
:1008D300C0E0C0F088F0E493667008087401936682
:1008E300187000A8F0A3A3700BD0F0D0E0D0E0D034
:1008F300E002071DA3A3D0F0D0E022D083D082CCA6
:10090300C0E0E493A360061209931470FAE493A37E
:100913006006120B0B1470FAD0E0FCE493A3C0E062
:10092300E493C0E022C0E074F2120579758900C235
:10093300C59019AAE0700E7A007B109005F7E0F9D4
:100943001213E48003121CFC7F01020635CAC0E0C7
:10095300E493A3C582CCC582C583CDC583F0A3C56B
:1009630082CCC582C583CDC583DAE5D0E0CA22CA6D
:10097300C0E0E0A3C582CCC582C583CDC583F0A307
:10098300C582CCC582C583CDC583DAE6D0E0CA2251
:10099300C0E0E493A3D39C5010E493A3C39C400A08
:1009A300D0E0D0E0D0E002091BA3A3A3D0E022C093
:1009B30008C3E096F50808A3E096420808A3E0966A
:1009C300420808A3E09645087001D3D008227009B5
:1009D300080808226016181818C6C333C608C63399
:1009E300C608C633C608C633C6D5E0EA22C09FF59B
:1009F3009FE473D09F22D083D082C09FE493C0E052
:100A0300740193C0E0740293F59F22C0E0C0D0E864
:100A1300C0E0A8A8D2AFC2C7751A00E8A2E792AF98
:100A2300D0E0F8D0D0D0E0322518F58210AF08F529
:100A330018400C15198008F51840021519D2AF8516
:100A43001983227404800A7403800674028002747A
:100A530001C0E0F404120A2BD0E0120CD52200C02E
:100A6300D0251810AF08F518500C05198008F51893
:100A730050020519D2AFD0D022BB0102E722C082B7
:100A8300C08389828A83BB0003E08002E493D0831E
:100A9300D082226016080808C6C313C618C613C638
:100AA30018C613C618C613C6D5E0EA22C3E0C69615
:100AB300F608A3E0C696F608A3E0C696F608A3E0F8
:100AC300C696F6222518F8E43519F9222518FAE412
:100AD3003519FB222518FCE43519FD22BB000EC095
:100AE30082C0838A838982F0D083D08222BB0101B2
:100AF300F722251810AF08F518400C15198008F5D2
:100B03001840021519D2AF22C0E0E493A36C700918
:100B1300D0E0D0E0D0E002091BA3A3D0E022E76637
:100B230070100809E766700A0809E7667004080987
:100B3300E76622C3E09608A3E09608A3E09608A31D
:100B4300E096A2D265D03322E066701008A3E06677
:100B5300700A08A3E066700408A3E06622C3E69760
:100B6300F60809E697F60809E697F60809E697F600
:100B730022C3E096F008A3E096F008A3E096F008FD
:100B8300A3E096F022C3E493960874019396087445
:100B9300029396087403939622E026F008A3E036A6
:100BA300F008A3E036F008A3E036F02270042260D8
:100BB3000D18C6C333C608C633C6D5E0F41822E6FB
:100BC30057F60809E657F60809E657F60809E657FF
:100BD300F622E056F608A3E056F608A3E056F60818
:100BE300A3E056F622E647F60809E647F60809E6C3
:100BF30047F60809E647F622E627F60809E637F638
:100C03000809E637F60809E637F622E026F608A3D0
:100C1300E036F608A3E036F608A3E036F622E493BE
:100C2300F608740193F608740293F608740393F6B6
:100C330022E056F008A3E056F008A3E056F008A31C
:100C4300E056F022E4C396F608E496F608E496F636
:100C530008E496F622C6F4C608C6F4C608C6F4C667
:100C630008C6F4C622600D08C6A2E713C618C61349
:100C7300C6D5E0F322C3E7960809E7960809E79685
:100C83000809E79622C3E09608A3E09608A3E09636
:100C930008A3E0962275D00075813F7518D17519A8
:100CA3000400020428E6F008A3E6F008A3E6F0082F
:100CB300A3E6F022600C08C6C313C618C613C6D534
:100CC300E0F422E0F608A3E0F608A3E0F608A3E0C8
:100CD300F622CAC0E0E6F0A308DAFAD0E0FA22E886
:100CE300F0A3E9F0A3EAF0A3EBF022E0F8A3E0F924
:100CF300A3E0FAA3E0FB22EAF0A3EBF0A3ECF0A35A
:100D0300EDF022E0FAA3E0FBA3E0FCA3E0FD22E583
:100D1300C754F84401F5C77901222518F582E43553
:100D230019F58322C2AF75D69F020000221209F97A
:100D3300C9F4041209F90EF5041209F99EF5041217
:100D430009F9F6F5041209F9D8F6041209F9BDF701
:100D5300041209F902F8041209F963F8041209F9F3
:100D6300EFF8041209F91BF9041209F966F90412E0
:100D730009F98CF9041209F924FA041209F9CDFAD4
:100D8300041209F920FB041209F951FB041209F9B1
:100D930088FB041209F92CFD041209F9F8FD041269
:100DA30009F9ABFE041209F9B182071209F9C282EB
:100DB300071209F96083071209F97883071209F901
:100DC300F47F001209F9E9FF031209F9ED80071214
:100DD30009F9FD80071209F91581071209F9C9817B
:100DE300071209F9A7FE061209F92AFF061209F9E3
:100DF30090FF061209F93B84071209F93E84071292
:100E030009F97784071209F9C784071209F9DA8403
:100E1300071209F9DD84071209F966D6061209F9E2
:100E230074D6061209F9EDD6061209F9C1D70612CE
:100E330009F980D9061209F9E5D9061209F940DA48
:100E4300061209F9F87F001209F953F0061209F99D
:100E53008BF0061209F9D6F1061209F95AF20612B5
:100E630009F99EE6061209F948E7061209F981E72E
:100E7300061209F9C8E7061209F98BE8061209F9FF
:100E8300B3E8061209F9D9E8061209F9EDE80612E2
:100E930009F902E9061209F90BE9061209F94EFAF2
:100EA300031209F97AFA031209F9FCFC031209F98E
:100EB30053FD031209F993FD031209F9A7FD031268
:100EC30009F9C0FD031209F9B1FE031209F962FF22
:100ED300031209F976FF031209F958F7061209F903
:100EE3007CF7061209F995F7061209F9C7F70612F6
:100EF30009F9F7F7061209F924F8061209F92EF889
:100F0300061209F990F8061209F99FF8061209F971
:100F1300A9F8061209F9B6F8061209F9F9E3061257
:100F230009F919E4061209F958E4061209F973E4F8
:100F3300061209F992E4061209F9F8E4061209F90E
:100F430001E5061209F95EE5061209F96DE50612D7
:100F530009F991E5061209F952E6061209F95FE665
:100F6300061209F970E6061209F92B86071209F928
:100F73004386071209F96F86071209F9B7B20612F9
:100F830009F911B4061209F91FB4061209F932B4AA
:100F9300061209F947B4061209F95CB4061209F9F5
:100FA3006FB4061209F9E3B4061209F948B506123B
:100FB30009F9D0B5061209F94CB6061209F910B7AA
:100FC300061209F920B7061209F92FB7061209F913
:100FD3009285071209F9B685071209F9DE8507120A
:100FE30009F90686071209F942E9061209F969E9BE
:100FF300061209F988E9061209F9F0E9061209F956
:1010030025E1061209F93EE1061209F94AE1061241
:1010130009F95EE1061209F97CE1061209F986E194
:10102300061209F990E1061209F9A3E1061209F97A
:1010330030E2061209F99FE2061209F9CEE206121E
:1010430009F91CE3061209F96BE3061209F986E3B1
:10105300061209F990E3061209F9A1E3061209F948
:10106300E4E3061209F992FF031209F9DDFF031203
:1010730009F90080061209F92A80061209F9478046
:10108300061209F95A80061209F97080061209F945
:10109300CE80061209F90181061209F9F2840612BB
:1010A30009F95286061209F98586061209F9CF86CF
:1010B300061209F92C88061209F95488061209F94F
:1010C3006988061209F97988061209F9BD8806129A
:1010D30009F91889061209F92889061209F91BFA70
:1010E300061209F935FA061209F95DFA061209F929
:1010F30076FA061209F99AFA061209F9B8FA0612EB
:1011030009F9CFFA061209F9FDFA061209F918FBD3
:10111300061209F98783071209F9CD83071209F922
:1011230060FC051209F970FC051209F977FD051237
:1011330009F9ABFD051209F9D7FD051209F9FAFD05
:10114300051209F918FE051209F952FE051209F9EB
:10115300BBFE051209F9FDFE051209F93CFF051254
:1011630009F96DFF051209F998FF051209F975D2FE
:10117300061209F9DAD2061209F980D3061209F91F
:10118300B7D3061209F90DCC051209F9A4CC05123F
:1011930009F9D2CE051209F9BDD1051209F94BD3CC
:1011A300051209F9B7D3051209F906D7051209F98A
:1011B30051D8051209F972FC061209F9BDFC061291
:1011C30009F98AFD021209F99AFF021209F99A989C
:1011D300061209F9C798061209F9069A061209F9BF
:1011E3009F9B061209F9239E061209F95A9E0612BD
:1011F30009F9A89F061209F960AD061209F906B0AC
:10120300061209F9ABB0061209F9D7B0061209F9AB
:1012130005B1061209F93AB1061209F962B10612CB
:1012230009F9C2B1061209F984F1051209F97CF52D
:10123300051209F96BF7051209F994F8051209F972
:1012430074F9051209F91EFB051209F9EEFB0512E3
:1012530009F942FC051209F923EE061209F92DEEEC
:10126300061209F94EEE061209F9C96D001209F9C1
:101273002E73001209F99C74001209F958760012B2
:1012830009F9D376001209F97277001209F96B781C
:10129300001209F99D79001209F9AF7A001209F9D0
:1012A3008F7B001209F9667C001209F90080051290
:1012B30009F93880051209F95E8A051209F93F8B8D
:1012C300051209F98B8C051209F9D48D051209F958
:1012D3008A8E051209F95E8F051209F945900512E8
:1012E30009F92D91051209F9CF91051209F9F9911F
:1012F300051209F9A993051209F91994051209F9B7
:101303003294051209F98995051209F93A960512DD
:1013130009F9BC96051209F96897051209F9D897D6
:10132300051209F97498051209F9EB98051209F9E0
:101333002399051209F9259A051209F9E49A051268
:1013430009F98A9B051209F9E9F5061209F913F659
:10135300061209F928F7061209F92BF7061209F9FB
:10136300D681071209F91182071209F9538207126C
:1013730009F96382071209F9A782071209F9E1A69D
:10138300061209F91FA7061209F988A7061209F917
:10139300A5A7061209F9BEA7061209F970A8061235
:1013A30009F979A8061209F9BEA8061209F9F4A8E1
:1013B300061209F90BA9061209F97DA9061209F902
:1013C3000AAA061209F940AA061209F997AA0612EF
:1013D30009F9FBAA061209F91EAB061209F982AB39
:1013E300061209F9DEAB061209F919AC061209F95E
:1013F3004EAC061209F960AC061209F972AC06127A
:1014030009F9AAAC061209F9F6AC061209F934ADCA
:10141300061209F951BC061209F991BD061209F920
:10142300B4BD061209F9C5BD061209F9BABF061201
:1014330009F9DABF061209F9E2EB061209F918EC09
:10144300061209F960EC061209F9BCED061209F956
:10145300E1E9021209F912EB021209F94CEB02124B
:1014630009F90BED021209F935ED021209F9C2EF80
:10147300021209F902F0021209F999F1021209F9AB
:101483002CF2021209F984F2021209F927F302126B
:1014930009F95FF3021209F9A1F3021209F910F530
:1014A300021209F962F6021209F985F8021209F922
:1014B300B3F8021209F9DAF8021209F9E3F8021291
:1014C30009F93AF9021209F9CCF9021209F9BAFC3D
:1014D300021209F93DFD021209F9E684071209F91E
:1014E300FC84071209F90685071209F960850712BA
:1014F30009F9CFC5061209F9E5C5061209F98AC625
:10150300061209F9C9C6061209F9E6C6061209F94F
:1015130017C7061209F964C7061209F997C7061215
:1015230009F9D2C7061209F9BEC9061209F91FCA79
:10153300061209F94BFB061209F9AAFB061209F96F
:1015430004FC061209F994FD061209F906FE0612B7
:1015530009F944FE061209F985FE061209F95889AC
:10156300061209F95E89061209F99F89061209F91B
:10157300918B061209F9C18B061209F9308C0612F8
:1015830009F9FE8C061209F93F8D061209F96D8DD2
:10159300061209F9F78D061209F90E8E061209F9DA
:1015A3001B8E061209F9258E061209F9C18F061240
:1015B30009F9D190061209F91A91061209F946F7A9
:1015C300011209F95CF7011209F9EFF7011209F9A0
:1015D3001BF9011209F910FA011209F9ADFA011206
:1015E30009F9EDFA011209F96BFB011209F9C8FBBC
:1015F300011209F9D8FB011209F9FFFB011209F9DC
:1016030052FC011209F9C3FD011209F9C8FD0112C7
:1016130009F9E8FD011209F9B086071209F9DE8616
:10162300071209F91387071209F91587071209F930
:101633001787071209F92887071209F92A8707125A
:1016430009F92D87071209F95AF4061209F9C8F4A2
:10165300061209F9EAF4061209F922F5061209F944
:1016630058F5061209F90DDE061209F954DE0612C1
:1016730009F977DE061209F9AAE0061209F9C4E0AE
:10168300061209F9EFE0061209F98CFF041209F9B1
:101693005791061209F93092061209F916930612A8
:1016A30009F92793061209F93893061209F9849365
:1016B300061209F97895061209F9CC96061209F96A
:1016C300FC96061209F9C397061209F92198061226
:1016D30009F999DB031209F9CBDB031209F964DC7D
:1016E300031209F9BDDD031209F9A4DE031209F996
:1016F3006FE0031209F98BE0031209F9DAE0031230
:1017030009F95CE1031209F9B7E1031209F9CAE126
:10171300031209F92EE2031209F989E2031209F906
:1017230039E3031209F92AE4031209F965E4031200
:1017330009F9EBE4031209F9E5E6031209F9A6E74F
:10174300031209F9CDE8031209F94AE9031209F969
:1017530009EA031209F98EEA031209F9DAEA031214
:1017630009F9F4EA031209F93DEB031209F95DEBF8
:10177300031209F913EC031209F939ED031209F9FC
:1017830044ED031209F9ABED031209F9FEED03125F
:1017930009F95CEE031209F958EF031209F9FBF199
:1017A300031209F91AF2031209F92BF3031209F9C7
:1017B3004FF3031209F9C5F3031209F985F4031270
:1017C30009F9BCF4031209F92EF5031209F94EF6CF
:1017D300031209F97EF6031209F988F6031209F9CF
:1017E3008BF6031209F995F6031209F9A8F6031209
:1017F30009F922F7031209F958F7031209F96BF7EC
:10180300031209F997F7031209F9BEF7031209F94D
:10181300E2F7031209F990F8031209F902F9031226
:1018230009F939F9031209F943F9031209F97AF9A4
:10183300031209F990F9031209F9ADF9031209F931
:10184300DBF9031209F9F1F9031209F909FA031291
:1018530009F91BFA031209F90080071209F911802B
:10186300071209F99C80071209F920C1061209F928
:101873005EC1061209F9EAC1061209F9F5C2061298
:1018830009F911C5061209F946C5061209F9D69FC9
:10189300061209F925A0061209F9C5A1061209F9CC
:1018A30099A3061209F9DBA3061209F9A6A40612E5
:1018B30009F9AEA5061209F9D0A5061209F92CA655
:1018C300061209F9ADA6061209F90080041209F9F6
:1018D3002280041209F9B581041209F9FE81041268
:1018E30009F97282041209F9EF82041209F9548387
:1018F300041209F95783041209F99983041209F9A7
:101903000884041209F9B784041209F9BA84041289
:1019130009F92F85041209F97285041209F96889F6
:10192300041209F9D38A041209F9118B041209F973
:10193300678B041209F9AD8E041209F92A8F041278
:1019430009F9D890041209F90892041209F93E938F
:10195300041209F9B893041209F9DB94041209F982
:101963008095041209F99495041209F962960412F8
:1019730009F98B97041209F9A499041209F97E9BBA
:10198300041209F90F9C041209F91D9F041209F9A5
:10199300BE9F041209F9ADA0041209F9FCA30412B5
:1019A30009F90CA4041209F98AA5041209F91BA662
:1019B300041209F918A7041209F9AFA8041209F9C6
:1019C30049A9041209F96EAA041209F9B8AA041262
:1019D30009F978AB041209F967D5041209F907D696
:1019E300041209F971D6041209F98AD6041209F905
:1019F30021D7041209F965D7041209F987D804120B
:101A030009F9C3D8041209F93FD9041209F98AD98B
:101A1300041209F9E9D9041209F9F9DA041209F9E6
:101A230019DE041209F93ADF041209F9B5DF0412C9
:101A330009F99CE1041209F93CE2041209F9E3E211
:101A4300041209F946E3041209F9BBE3041209F984
:101A5300CAE4041209F99EE5041209F9D4E5041253
:101A630009F903E6041209F9B7E6041209F9E3E6F2
:101A7300041209F963E7041209F9E3E8041209F906
:101A83006FEA041209F9B7EB041209F922ED041203
:101A930009F92EEE041209F9D1EE041209F94AEFFD
:101AA300041209F978F0041209F935AC041209F9A2
:101AB30098AC041209F9E0AC041209F924AD04123C
:101AC30009F98EAD041209F9D7AD041209F90FAE65
:101AD300041209F9A9AE041209F903AF041209F9B2
:101AE30050B0041209F9D9B0041209F900B1041273
:101AF30009F90AB2041209F9F5B2041209F942B359
:101B0300041209F941B4041209F969B4041209F978
:101B1300B2B5041209F9C3B5041209F9DBB504120D
:101B230009F9C4B6041209F9AAB7041209F9B3B83A
:101B3300041209F9DDB8041209F9F5B8041209F918
:101B43000FB9041209F946B9041209F966B9041266
:101B530009F98DB9041209F9A4B9041209F980BA73
:101B6300041209F9D8BA041209F981BD041209F95A
:101B7300B0BE041209F9E6BE041209F9F0BE04125C
:101B830009F907BF041209F974BF041209F95DC00A
:101B9300041209F993C0041209F964C1041209F982
:101BA30005C2041209F933C2041209F940C304122D
:101BB30009F95FC3041209F9E2C3041209F953C412
:101BC300041209F997C4041209F91BC5041209F98F
:101BD30078C5041209F925C6041209F90BC80412C1
:101BE30009F9EBC8041209F941C9041209F9C7B18B
:101BF300051209F9C4CC041209F96ECF041209F9CC
:101C030018D1041209F9E8D1041209F960D20412B7
:101C130009F982D2041209F971D3041209F961D4C2
:101C2300041209F9CCD4041209F92CCA061209F9D1
:101C330040CC061209F906CD061209F95BCD06124E
:101C430009F9D8CD061209F96CCE061209F98ACE24
:101C5300061209F9CECE061209F9F4CE061209F9D5
:101C6300ADF4041209F932CF061209F94ACF06126C
:101C730009F9B5CF061209F9F7CF061209F90CD005
:101C8300061209F913D1061209F92ED1061209F920
:101C930037D1061209F940D1061209F949D10612C2
:101CA30009F953D1061209F974D1061209F9F1D1D0
:101CB300061209F968B7061209F9C9BB061209F930
:101CC300E5BB061209F9EABB061209F9D9F20612B5
:101CD30009F9C57C001209F9DB7C001209F9577E6A
:101CE300001209F9817E001209F9C77E001209F971
:101CF300C57F001209F9C0F8061209F9D9FF0112CC
:101D030009F9A9FF061209F90080031209F93280C3
:101D1300031209F99E80031209F93981031209F9A3
:101D2300D881031209F91D82031209F93F820312B4
:101D330009F95882031209F97E82031209F9A08274
:101D4300031209F9DE82031209F92283031209F946
:101D53004483031209F9A683031209F96D8403125C
:101D630009F92485031209F99685031209F968868E
:101D7300031209F9B286031209F90587031209F957
:101D83006B87031209F9A587031209F9F787031271
:101D930009F91388031209F93E88031209F9458AE0
:101DA300031209F9998B031209F9BB8B031209F981
:101DB300EF8B031209F9108C031209F91F8C03121C
:101DC30009F92A8C031209F9DA8C031209F9438DF4
:101DD300031209F9F08D031209F9288E031209F988
:101DE300EE8E031209F9FB8F031209F945900312D2
:101DF30009F9D490031209F93891031209F973917F
:101E0300031209F9DF93031209F93395031209F950
:101E13006C98031209F93999031209F9C799031246
:101E230009F9DB99031209F9049A031209F9769A5D
:101E3300031209F90A9B031209F97A9B031209F9A0
:101E4300629C031209F9849C031209F9EA9D0312A7
:101E530009F9039E031209F9169E031209F9739EE9
:101E6300031209F9829E031209F90B9F031209F960
:101E7300219F031209F92DA0031209F93AA00312B5
:101E830009F943A0031209F91BA2031209F94BA391
:101E9300031209F95BA3031209F96AA4031209F9EE
:101EA300E1A4031209F91AA5031209F94AA60312B8
:101EB30009F990A6031209F95CA8031209F934ACD5
:101EC300031209F948AC031209F952AC031209F9D8
:101ED3005CAC031209F966AC031209F970AC031286
:101EE30009F989AC031209F993AC031209F911AD8D
:101EF300031209F91CAD031209F949AD031209F9DB
:101F03006EAD031209F979AD031209F9C7AD0312D6
:101F130009F9D1AD031209F9DCAD031209F900AED9
:101F2300031209F924AE031209F980AE031209F969
:101F3300C6AE031209F9E3AE031209F960AF031247
:101F430009F997AF031209F9D6AF031209F923B0C0
:101F5300031209F9A5B0031209F93EB1031209F9F5
:101F63000EB3031209F96CB3031209F988B403120F
:101F730009F9AEB4031209F9EDB5031209F913B95E
:101F8300031209F954BB031209F930BD031209F90D
:101F9300C6BD031209F9EDBF031209F999C0031273
:101FA30009F9CEC0031209F933C1031209F93DC17E
:101FB300031209F967C3031209F955C4031209F996
:101FC3009EC5031209F9DEC5031209F984C603127B
:101FD30009F915C8031209F99EC9031209F9BEC903
:101FE300031209F917CA031209F919CB031209F9E4
:101FF30063CB031209F9B3CB031209F99DCC031286
:1020030009F912CD031209F92CCE031209F9A7CE4F
:10201300031209F9ACCF031209F957D2031209F9D4
:1020230076D2031209F9D7D3031209F999D503120A
:1020330009F9EDD5031209F9A5D6031209F954D705
:10204300031209F9B4D7031209F96AD8031209F97B
:10205300FFD8031209F96BD9031209F9A5D90312A1
:1020630009F9D6D9031209F932DB031209F9008001
:10207300021209F93280021209F96980021209F980
:102083005082021209F99082021209F97383021233
:1020930009F9CB83021209F90685021209F952855F
:1020A300021209F97A88021209F9E68B021209F978
:1020B300338D021209F9C98D021209F9D58D021265
:1020C30009F9078E021209F9898F021209F997900B
:1020D300021209F9C190021209F91891021209F9C1
:1020E3007191021209F9DD91021209F9F4930212B6
:1020F30009F98395021209F94D96021209F98B9792
:10210300021209F9BB99021209F98B9C021209F90F
:10211300989C021209F91F9D021209F9C79D021228
:1021230009F90A9E021209F9539E021209F9A79EA0
:10213300021209F90C9F021209F9749F021209F99C
:10214300919F021209F9C19F021209F9F69F021227
:1021530009F9C6A0021209F96FA1021209F9F3A342
:10216300021209F913A5021209F9FCA5021209F9D1
:102173007EA6021209F9A0AA021209F9DDAA021227
:1021830009F935AB021209F968AB021209F9E9AB97
:10219300021209F936AC021209F9C1AC021209F9AB
:1021A30013AD021209F9EAAD021209F9A3AE021244
:1021B30009F93EAF021209F957B2021209F977B3CE
:1021C300021209F928B7021209F946B8021209F9ED
:1021D30049B8021209F978B8021209F97EBA021253
:1021E30009F957BB021209F98CBB021209F994BC15
:1021F300021209F94ABD021209F9F0BE021209F9E5
:1022030054BF021209F979BF021209F9B8BF0212C9
:1022130009F9F9BF021209F9D1C0021209F9AFC1D4
:10222300021209F9DCC1021209F9A9C2021209F961
:10223300DFC4021209F950C5021209F990C502124E
:1022430009F9C9C5021209F95DC6021209F9A6C73F
:10225300021209F969CB021209F958CC021209F9E1
:102263003FCD021209F9B7CD021209F979CE021254
:1022730009F92FD0021209F9B7D0021209F9CCD10A
:10228300021209F9DDD1021209F9F5D1021209F995
:1022930006D2021209F91AD2021209F952D2021213
:1022A30009F980D2021209F907D4021209F9D9D423
:1022B300021209F960D5021209F99BD5021209F934
:1022C300F9D5021209F940D6021209F905D802120A
:1022D30009F9B7D8021209F9E7D8021209F9CBD9DB
:1022E300021209F97CDA021209F937DC021209F940
:1022F300EEDC021209F923DD021209F98BDD021269
:1023030009F9BADE021209F96CDF021209F99DDF3D
:10231300021209F9B5DF021209F944E0021209F9C0
:10232300F8E2021209F9D0E4021209F9ECE402120C
:1023330009F908E5021209F9D6E5021209F9BFE91C
:10234300021209F954DA061209F994DA061209F9A4
:1023530047DC061209F956DC061209F9C2B5051263
:1023630009F9D9BA051209F924BB051209F974BD93
:10237300051209F908BF051209F996BF051209F9F3
:10238300F7C1051209F9FCC3051209F950C4051276
:1023930009F95FC6051209F9B2C6051209F90DC795
:1023A300051209F92FC7051209F936C7051209F9EC
:1023B3004EC7051209F92EC8051209F90DC90512F0
:1023C30009F91D82011209F95F82011209F9958742
:1023D300011209F9E187011209F92788011209F9A4
:1023E3007689011209F9D289011209F9178A0112B2
:1023F30009F9AA8B011209F9008F011209F9259035
:10240300011209F9A79B011209F93A9C011209F972
:10241300979F011209F9D6A0011209F931A10112FE
:1024230009F979A2011209F965A3011209F9FCA5B9
:10243300011209F96BA7011209F9F2A7011209F9AF
:10244300F5A7011209F96AA8011209F974A8011282
:1024530009F981A8011209F9ACA8011209F95CA9CB
:10246300011209F959AA011209F903AB011209F979
:1024730090AB011209F9AEAB011209F9C7AB011216
:1024830009F9F0AB011209F912AC011209F958AEBE
:10249300011209F93BAF011209F981AF011209F9E0
:1024A30000B0011209F9ACB0011209F9DEB0011252
:1024B30009F930B1011209F96CB1011209F9ABB193
:1024C300011209F9FBB1011209F900B2011209F96C
:1024D30054B2011209F980B2011209F95CB3011275
:1024E30009F9ACB3011209F919B4011209F973B46A
:1024F300011209F90AB5011209F94FB8011209F9D4
:1025030067B9011209F900BB011209F933BE0112BF
:1025130009F9C5BE011209F9BCC1011209F97BC24F
:10252300011209F9BFC2011209F964C4011209F9C0
:1025330078C4011209F982C4011209F98CC4011289
:1025430009F998C4011209F9B4C4011209F914C7AD
:10255300011209F953C7011209F95DC7011209F9FB
:1025630067C7011209F9EDC7011209F945C801123C
:1025730009F962C9011209F9C6C9011209F9D3CAD5
:10258300011209F917CB011209F9C3CB011209F999
:102593009CCC011209F957CD011209F964CE01123D
:1025A30009F99ECF011209F99BD0011209F9B3D0A1
:1025B300011209F90AD1011209F914D1011209F919
:1025C3001ED1011209F929D1011209F947D10112CA
:1025D30009F98FD1011209F9F1D1011209F918D2C0
:1025E300011209F92AD2011209F9C5D2011209F916
:1025F300FAD2011209F9F9D3011209F947D40112E8
:1026030009F941D5011209F977D5011209F9FAD56A
:10261300011209F96BD6011209F917D8011209F948
:1026230041D9011209F904DA011209F9D5DA0112C3
:1026330009F940DB011209F9BDDB011209F9EADCF2
:10264300011209F97EDD011209F9CEDD011209F942
:1026530039DE011209F9FFDE011209F949DF01121E
:1026630009F9A1DF011209F979E0011209F99CE0E6
:10267300011209F95FE1011209F981E1011209F976
:10268300EAE1011209F900E4011209F9F0E4011287
:1026930009F9BAE5011209F9F2E7011209F93CE86F
:1026A300011209F98CE8011209F9F9E8011209F993
:1026B3005BE9011209F989E9011209F9ADE901128E
:1026C30009F9E2E9011209F913EA011209F946EAE3
:1026D300011209F9A0EA011209F9F3EA011209F951
:1026E3001FEC011209F9CCED011209F91AEE0112DE
:1026F30009F943EE011209F9CFEE011209F944EF8A
:10270300011209F952EF011209F976EF011209F9E1
:10271300D3EF011209F9F2EF011209F9A8F001123E
:1027230009F9E0F0011209F923F1011209F986F11F
:10273300011209F978F3011209F9A2F3011209F957
:10274300A6F4011209F9B8F5011209F968F60112A4
:1027530009F96FE6051209F9A7E6051209F9C8E6B2
:10276300051209F90AE7051209F96CE7051209F9D7
:1027730076E7051209F986E7051209F9C1E705129B
:1027830009F9A1EB051209F98EED051209F974EFA8
:10279300051209F90BF0051209F9ADF0051209F953
:1027A300E832001209F99333001209F94134001297
:1027B30009F94735001209F96735001209F990360E
:1027C300001209F94B38001209F9BE38001209F951
:1027D3006239001209F96E3A001209F9D93A001266
:1027E30009F9153B001209F9583B001209F9933B0B
:1027F300001209F9D53B001209F96A3C001209F9E4
:10280300E63C001209F9B03D001209F98D3E0012B1
:1028130009F9253F001209F93F3F001209F96F3FFB
:10282300001209F9A03F001209F96640001209F9E4
:102833007640001209F9C540001209F9D24000128E
:1028430009F9DB40001209F95941001209F9B541B0
:10285300001209F90042001209F91B42001209F99A
:102863004642001209F96342001209F96F4200124D
:1028730009F90644001209F91F44001209F9A44496
:10288300001209F9B744001209F9D644001209F9F4
:102893007A45001209F9FB46001209F9AE48001205
:1028A30009F94449001209F94749001209F9B749DE
:1028B300001209F9D549001209F96C4A001209F905
:1028C300B44A001209F9B74A001209F97D4B001204
:1028D30009F9EA4B001209F9104C001209F99B4C53
:1028E300001209F9B94C001209F9FF4C001209F959
:1028F300B34D001209F9FD4D001209F92C4E0012D7
:1029030009F9894E001209F9BE4E001209F9EA4E7F
:10291300001209F9F84E001209F9454F001209F99E
:10292300B54F001209F9FE4F001209F94A5000127F
:1029330009F97650001209F98150001209F99F50E4
:10294300001209F98A51001209F99451001209F988
:10295300CF51001209F9DF51001209F9E8510012B1
:1029630009F93C52001209F95052001209F97F5338
:10297300001209F99253001209F9A953001209F937
:10298300BE53001209F94C54001209F99154001274
:1029930009F91D55001209F92855001209F96A565B
:1029A300001209F98556001209F9D156001209F9E6
:1029B3004057001209F97957001209F99357001289
:1029C30009F9F357001209F99258001209F9DD5871
:1029D300001209F9AD5B001209F95F5C001209F9F5
:1029E300CC5C001209F90C5F001209F9245F001294
:1029F30009F9275F001209F9335F001209F9475FEC
:102A0300001209F94F5F001209F9825F001209F9F8
:102A13008560001209F91261001209F9826100123E
:102A230009F90462001209F9C562001209F9E462A6
:102A3300001209F98563001209F9E263001209F92A
:102A4300E563001209F91264001209F92764001200
:102A530009F99B64001209F9EA65001209F9F066A5
:102A6300001209F97B67001209F99668001209F947
:102A73005E69001209F98F69001209F9B26900123F
:102A830009F9BB69001209F9EA69001209F97A6ABE
:102A9300001209F9306B001209F9A56B001209F94C
:102AA3004C6C001209F9C16C001209F9F86C0012A0
:102AB30009F9366D001209F96C6D001209F970B14C
:102AC300051209F9C4B0051209F9FCAE051209F99A
:102AD30045AE051209F912AE051209F9C7AD051283
:102AE30009F962AD051209F921AD051209F901AD24
:102AF300051209F933AC051209F9C0AB051209F93E
:102B03005EAB051209F901AB051209F974A90512A7
:102B130009F911A9051209F965A8051209F95CA8B3
:102B2300051209F950A8051209F91DA8051209F99A
:102B3300CEA4051209F9A0A4051209F93BA40512B4
:102B430009F928A4051209F91DA4051209F9E1A33D
:102B5300051209F90FA2051209F9B3F2041209F9D2
:102B6300F8A1051209F975F2041209F94FF20412DA
:102B730009F9D3F1041209F933B5051209F9E8B4D7
:102B8300051209F97CB4051209F92EA1051209F9F8
:102B93008BA0051209F9AF9E051209F9519D051283
:102BA30009F919B4051209F9469D051209F9BE9CE4
:102BB300051209F9559C051209F9319C051209F909
:102BC300EFB3051209F938E6051209F91ACF06120F
:102BD30009F9F1E5051209F990E5051209F95BE533
:102BE300051209F930E5051209F9FCE4051209F9A2
:102BF300D4E4051209F957E4051209F941E4051271
:102C030009F911E4051209F987E3051209F9CCDF83
:102C1300051209F984DD051209F95CDB051209F9CE
:102C2300DEDA051209F98FDA051209F973B3051211
:102C330009F91CDA051209F9DDD9051209F97FD959
:102C4300051209F99FCA0400000080FB8F000100F0
:102C5300DF1C870001009E1935000400A31C25001A
:102C63000200A71C26000200A91C27000200AB1CBF
:102C730028000100B51C29000100B61C84000400D3
:102C8300761986000100171C2A000100B71C2B00CF
:102C93000100B81C2C000100BE1C2D000800841983
:102CA3002E000100BF1C2F000100C01C30000100DA
:102CB300C11C31000100C21C320001008C19330019
:102CC30001008D1934000100C31C360001008E1968
:102CD30038000100C41C39000100BD1C8300020040
:102CE300DC1C63000100991964000100B91C650034
:102CF3000100BA1C6D0001009A19710008007C19CB
:102D030066000100DB1C43000100CC1C44000200F0
:102D1300CD1C45000100CF1C46000200D01C47001B
:102D23000800911948000100D21C4B000100D31C7C
:102D330004000100DE1CA1000100E21C37000100B9
:102D4300E11C88000100E01C3C0001008F193D00DC
:102D53000100C51C49000200D41C670001009B1937
:102D63004D000200D61C4E000100D81C4F0002008B
:102D7300D91C3E000100CB1C51000100C71C5200AE
:102D83000100C81C53000100CA1C54000100901923
:102D930000000000000000013636010100010201BD
:102DA30000010301000104010606050200000701FA
:102DB30000340801000F090401010D0100FF0E0892
:102DC300000017020000190100FF1A0100011B0196
:102DD30000FE1C0100081D0200001F01000120016C
:102DE3000001210200002301000F2402000026013C
:102DF300000127010008280200FF2A0100072B0118
:102E030002402C0100002D0100012E0100012F01C1
:102E130000FF30010B1D310800003A0100083B019F
:102E2300000F3C0100013D0100FF3E04000042048D
:102E33000000460400004A0400004E04000052044F
:102E43000000560400005A0400000103710301034B
:102E5300010301030103010322030203010310031E
:102E63000003000300030003000300030003420305
:102E730000032403060300030003040312032503D2
:102E830023032503230304030403000300030003B4
:102E930044030003000323030003650321003503F8
:102EA300810300030503000300030003000325035C
:102EB3002303030271023001600211027002010256
:102EC300020202028002100261023A004100630220
:102ED300730272026202430200021302380000020C
:102EE30000020402120200020002000200020402B5
:102EF3000402370037003C0244020002390000029A
:102F0300000265020002350281020002050282020C
:102F130083020002030071003001600011007000A1
:102F230031022003500480001000610000001400EF
:102F33006300730072006200430000001300060088
:102F43000000000004001200000000000000000068
:102F530004000400370037003C0244000000000076
:102F6300000000006500000035008100000005003E
:102F73000000830000000101710101010101110141
:102F830001013101010101018001100161013B00D7
:102F93001400630173017201620143010001130113
:102FA30006013D0135000401120100010001000189
:102FB300000104010401330133013C0144013201E6
:102FC30036000001000165010001350081010001A7
:102FD30005018201830100010304710402046004FA
:102FE30011047004020402040104020410046104C5
:102FF30000041404630473047204620443040004AD
:10300300130406040004000404041204000400046E
:103013000004000451046400000400040004440498
:103023000004000400040004650400043504810462
:103033006400050400048304000436000100060054
:1030430000000F000000000000000000000000006E
:1030530003FFFF00000403FFFF0000FFFF0FF40165
:103063000005C4040320000100000B000000000061
:1030730000000003010F000000000000000000003A
:10308300000000000000000000000000000000003D
:103093000000000000000000130072191F007819DF
:1030A3001F807E1900001A1A01001A1A0200F41870
:1030B3000280EE180300FA180400001904800619B0
:1030C30005000C19060018193000361931003019A3
:1030D300320042193300481935004E19340054198F
:1030E30036005A191100661914006C1915002A19B3
:1030F300FFFF00000A0000000200000004000000BF
:103103000800000010000000200000004000000044
:103113008000000000010000000200000004000025
:103123000008000000100000002000000040000024
:10313300010A24063A240834240B58241020200AB8
:103143006A240210240528240716240CF2230DFEFA
:103153002364EC1DFF000007ECFDFDFDECDCDCCC83
:10316300BCACAC9C9C8C7C7C6C6C5C5C5C4C4C3CCC
:103173003C2C2C1C1C03EAF5E5D5D5C5B5A59595C6
:10318300858575756565555545453535252515156C
:103193000500160F00000B150B020002220F33006F
:1031A300000E0F00000000000000000000000000FF
:1031B3000000005A6967426565416C6C69616E6322
:1031C300653039D0D1D2D3D4D5D6D7D8D9DADBDC50
:1031D300DDDEDF000119161816161823030000039D
:1031E3004D4C4651181A2505023030161819202364
:1031F3001A1C1E30003C40423A3F3F392F473030C3
:103203003017181921301B1D1F300C0E020B040B35
:103213000A0708000F02040201010101090200BEAE
:10322300040AE80300000E000000E8030C001E007F
:1032330000007F00030004091E100A0C100803FF9E
:103243000C280004040209033C0C05080B081EE4C7
:10325300F0A3F0A3F0A322123252F022901B091222
:10326300485E12280C2212326D22E0F508E4F509BB
:10327300F50AF50B22E824FBF582E934FFF58322F6
:10328300E82411F582E439F583E022F583123294C0
:1032930022E0F508A3E0F50922122AA67404120A13
:1032A300617F080207737401F0900579E0640F22CF
:1032B3007409120A617F04020773EA2413FAE43FD4
:1032C300FB1229C8E92279051229D4740622A3A383
:1032D300E024F5C3941322122AB29005991268913F
:1032E3007A147B0022C082C083901AE87400F0A392
:1032F3007428F0A37412F0A37428F0901AEC74E805
:10330300F0A37427F0A374E2F0A37427F0A3741E50
:10331300F0A37428F0A37424F0A37428F0A3741802
:10332300F0A37428F0A374D0F0A37427F0901AF8D4
:1033330074F4F0A37427F0A374FAF0A37427F0A332
:1033430074EEF0A37427F0A3742AF0A37428F0900A
:103353001B091252366009901B0912485A12144A6B
:10336300901B06124B747408125EFCA3F0901BB200
:10337300F0901B0BF07C0BFDF97A0C7B1B12138A6C
:103383007C0B7D0079007A177B1B12138A0249CECE
:1033930074F712050D74F7120AF5EAFEEBFF123407
:1033A300267405124C927403F012353D124C7424AA
:1033B30030FCE43FFD8C8212341E1234326008125A
:1033C3003C4B74FFF0A3F0EE242EE43F1C1CFD8C59
:1033D30082F583A3E0C0E08A828B83124926D0E082
:1033E300123432888289831251612403F0EE123C35
:1033F30055120D1D7403F090058E12087974021294
:103403000AD712381F120A61E9F5087007EEFAEFBE
:10341300FB12289CA9087409023C64F583E08882A6
:10342300898322EA12342B221253793FF583221225
:10343300617C124C80E8F0A3E9126495E02274F0F9
:1034430012050DEAFEEBFF8C0C8D0D890B12353D39
:10345300F583124C887410120D1DE0F508A3123485
:1034630020F0E824FFF582E9123831E508F0E8247A
:10347300FEF582E9123831E50BF0900593E0C0E0E8
:10348300E824FDF582E9123831D0E0F0900592E0AE
:10349300C0E0E824FCF582E9123831D0E0F0741280
:1034A300120D1D123290123278E509F0E824FAF871
:1034B300E934FFF98882F583E508F0EE2404FCE49F
:1034C3003FFD88088A828B83E0F50E8C828D83E032
:1034D300250EC3950812617C124AAE850C82850DB8
:1034E30083A3A3A3A3A3A3A3A3E064037009EE127E
:1034F3004C62F0A3E4800312383612383E7409F0AC
:1035030075080C75091B750A007808120A4A125CC3
:1035130046120A617508FF7509FF7808120A4EAC56
:103523000CAD0D12381F120A61E9F5087007EEFAA7
:10353300EFFB12289CA9080232A4EA2402FAE43F12
:10354300FB8A8222C082C083901B28E0C394084078
:103553000474078001E08A828B83F033333354F899
:10356300F90249CE74F012050D8A088B09890A8C79
:103573000E8D0F750C00A2AFE433F50BC2AF901B99
:10358300228045123669503D12368364037036E556
:103593000824F9F508E50934FFF5098E828F83A322
:1035A300A3E02405FCA3E03400FDAA08AB0912152F
:1035B30058E50824FFF508E50934FFF509741025DB
:1035C3000CF50C150A123A58126C46E50A6004EE23
:1035D3004F70B0E50BA2E092AFA2AFE433F50BC29C
:1035E300AF901B22803E12513A8882F5831243AE7C
:1035F300850882850983F08A82898312367AA3A398
:10360300E0C0E0E50824FFF582E509123831D0E097
:10361300F0E50824FEF508E50934FFF509050C1566
:103623000A123A581238AC6021123683640270F1E0
:10363300123669EE40B0124DA9A2E550E4850E8220
:10364300850F837401F0E50A70D7E50BA2E092AF12
:10365300850882850983E50CF0E50824FFFAE5096E
:1036630034FFFB0232A412366FA2E622EE2411F5D8
:1036730082E43FF583E02212367E2212517FA32299
:103683008E828F83A3A312492A1258892274F012BF
:10369300050D74F3120AF57403120D1DE9F074029B
:1036A300120D1DEAF08B0B851882851983E4F00453
:1036B300120ACF1227B2E9F8900578E0292437F5EA
:1036C30008FA7B001213A28A0C8B0DAE0CAF0DEA25
:1036D3004F7003023816EA2402F50EE43FF50FA8F3
:1036E30008EA28F8E43BF9850E82850F831241AA84
:1036F300900578E0F9FAC3E49AFA95E0FB850E8227
:10370300850F83E02AF50CA3E03BF50D90057612B7
:103713003290750A007808120A4AE9FC7D00AA0C67
:10372300AB0D124BE4120A61AC18AD197401120D02
:103733001DE0F9E50C24FFFAE50D34FFFB1227B871
:103743008A828B83E4F0E50BC454F0F9901BB3E059
:10375300C4333354C0F8900572E0A2E0E43313138A
:103763004849440FC0E0EA24FFF582EB123831D018
:10377300E0F0EA24FEF50CEB34FFF50D7403120DB3
:103783001DE0F87402120D1DE0C454F048850C824C
:10379300850D83F0A80C850E82850F83125EC92ADE
:1037A300C3988E828F83A3A3A3A3F0850E82850F74
:1037B30083E8F0A3E50DF012383612383EE4F074D6
:1037C3000C120D1DE4F075081775091B7808120A11
:1037D3004A125C46120A61851882851983E06009E2
:1037E300EE240E124DAB4408F01229B6E9F9E4F5C4
:1037F30008F5097808120A4E7406120AD7123821FE
:10380300120A61E97006EEFAEFFB800BEEFAEFFBAA
:103813001213A87A007B00740D0232A17903EEFA29
:10382300EFFB1229CE740222EE24FFF582EF34FF60
:10383300F58322EE12342BE4F0A322F01238432254
:10384300EE125B693FF5832274F212050D8A0C8B2D
:103853000DA2AFE433F50AC2AF75080075090090F5
:103863001B22802C123A685024850C82850D83A379
:10387300A3125C598E828F83A3A312485A1229BCC8
:10388300E9600A123A63C2E6F08E088F09123A58C9
:103893001238AC70CFE50845096006123945D2E607
:1038A300F0E50AA2E092AF800DE0FEA3E0FFEE4F49
:1038B300227402120A617F0602077374F012050D67
:1038C3008A0E8B0F8C0C8D0D750A00A2AFE433F5B5
:1038D3000BC2AF7E007F00901B228010AE08AF09A1
:1038E30012393D124DA9D2E7F012483812484C6004
:1038F30034123945A2E750F1850882850983A3A3D1
:10390300120879AC0CAD0DAA0EAB0F1229C27402CA
:10391300120A61E960D3EE4F60C2123CDF700612F7
:103923003957D2E4F0E50BA2E092AFEE4F600612F6
:103933002896750A01A90A0232A412366FD2E4F05E
:10394300EE22E508125B833509F583E022AA82ABF8
:10395300831215588E828F83A3A312492AE02274FF
:10396300F212050D74FE120AF5750C00750D008533
:103973001882851983E4F0A3F0A2AF33F50AC2AF2E
:10398300901B22126C46802BEE24FBF582EF34FF52
:1039930012328E780C120A4E123A46120A61EEFC6B
:1039A300EFFDAA18AB191213C6AE08AF09901B2876
:1039B300E014F0EE4F602B123A68501DEE240BF822
:1039C300E43FF98882F583E024FFF0A3E034FFF0BD
:1039D3008882898312523660AF8E0C8F0D123A584B
:1039E30080A1E50AA2E092AF901B28E0602C90052D
:1039F30079E0640F6006901BB2E0701E7A007B1BB7
:103A0300122AB29082141208717A007B1B124A5652
:103A1300120A61800574F0124937AA18AB19121300
:103A2300CC8A088B09AE08AF09EA4F60131227C48A
:103A3300123A63A2E28E828F83A350D974E980D7AE
:103A43000238B4EEFCEFFD7A227B1B1213D874020A
:103A5300228E0A8F0BEE24FBF582EF34FFF58322CF
:103A6300EE1236702212366FA2E72274F712050D9A
:103A7300EAFEEBFF1227C412492312068DE9640103
:103A8300900595700AE02401F8A3E0340080031246
:103A930048A9F9124FAB124AAE901B28E0701F9051
:103AA3000579E0640F70177A007B1B122AB29082AB
:103AB300141208717A007B1B124A56120A61A8A8D5
:103AC300C2AF901B28E004F0E8A2E78004E508A257
:103AD300E092AF024EB974F712050DEAFEEBFFEA6E
:103AE300123B0FF01227C4EEFCEFFD7A227B1B1270
:103AF30013D2A8A8C2AF901B281243FD900579E00A
:103B0300640F70057908122962024EB9123670C229
:103B1300E42274F712050D74EA120AF5EAFEEBFFCC
:103B2300900572E0602A8518828519837401F0126A
:103B33000D1DE4123BCA120D1D123950C0E0740A68
:103B4300120D1DD0E0125EE9740B120D1D125116F9
:103B53007416023C6474F712050DEAFEEBFF12279C
:103B6300A6E9F974DC69601E74DD69601974E4699F
:103B7300601474F369600F74DE69600A74DF69604E
:103B83000574DB697007EEFAEFFB122968024EB980
:103B930074F712050D74EB120AF5EAFEEBFF8518B4
:103BA300828519837406123BCA120D1DAA82AB8348
:103BB300121558EE2408FCE43FFD740A120D1D1281
:103BC30051167415023C64F0EA2413FCE43FFD74BF
:103BD300022274F712050D74F7120AF5EAFEEBFFE1
:103BE300EA2430124DAB605DEA123C55120D1D7490
:103BF30003F090058E120879123C4B120879900558
:103C0300A1E0F97404120AD7EEFAEFFB1227AC74A1
:103C130004120A61E9F974DC69602374DD69601ECA
:103C230074E469601974F369601474DE69600F7475
:103C3300DF69600A74E869600574DB697007EEFA8E
:103C4300EFFB122968023419EE242EF582E43FF5C6
:103C5300832212605AAA18AB1912155874082274D9
:103C630003120A61024EB974F212050D8A0C8B0D10
:103C7300750A00750B007508E7A2AFE433F509C2B6
:103C8300AF901B228003123A541238AC6025123ACB
:103C93006850F3123CDF70EEEE2432123E76E06899
:103CA30070E4780A120A4E123A46120A61901B28EF
:103CB300E014F0E509A2E092AFEE4F6013EEFAEFE5
:103CC300FB1227C479F0EEFAEFFB1229687508009E
:103CD300A908AA0CAB0D1229680238B9123843E0BF
:103CE30064012274F412050D74F7120AF5EAFEEB6F
:103CF300FF8A82F583A3E064F37003023D848A8222
:103D03008B83A3E064DF60798A828B83A3E064E81A
:103D1300606F8A828B83A3E064DB6065122806E907
:103D2300F5087055EE240E124DAB604D123D8E60BA
:103D3300487408120D1D123D9D1208797508FF7510
:103D430009FF7808120A4E8E828F83A3A3A3A3A32D
:103D5300A3A3A3E0F97404120AD71227AC740412C4
:103D63000A61E9F50874F369600F74DF69600A7426
:103D7300E869600574DB69700F8E828F83A3E508A1
:103D8300F0EEFAEFFB1228120232B3EE240FFAE43C
:103D93003FFB7909122848EA4B22740212564F74EA
:103DA300FFF0A3123DAA2212516AA3A32274F112B7
:103DB300050DEAFEEBFF7508008A82F583A3A3A332
:103DC300A3A3A31232D140037508E88A828B83A38D
:103DD300A3A3A3A3A3A3A3A3A3E0C3941040057524
:103DE30008E880138A828B83A3A3A3A3A3A3A3A31B
:103DF300A3A3E0640F600B901B8FE054087003755E
:103E030008E8EA240B123E76A3A3A3A3A3A3A3A3C8
:103E1300E0C398500DEA240B124DAB640F60037599
:103E230008E8900592E0F47003A3E0F470037508CA
:103E3300EC7A237B001214448B0BA90B901B091201
:103E43003E8560278E828F83A3A3A982AA83890CD0
:103E53008A0D750E00780C120A4A7C237D00901B94
:103E630009E0FA124BE4120A61800375081AA908E3
:103E7300025C41F582E43FF583E0F88A828B83A3F9
:103E8300A322EAF0A3EBF0EA492274F512050DEA46
:103E9300FEEBFF8A82F583A3A3A3A3A3A3A3A3E0BB
:103EA300900579123F1DE0900594F0EA240B124D22
:103EB300AB900574123F1DA3E0901BB3F0F91210F1
:103EC30012901BB3E0600BEE2404124D9D240612E6
:103ED3003F13901BB21232A9600474018002740074
:103EE300901B0B1265D6120A4A7C0B7D007A0C7B61
:103EF3001B124BE4120A61EE2418F508E43FF5099E
:103F03007808120A4A7C0B7D007A177B1B024BD17F
:103F1300FAE43FFB79E1120FFA221265C0A3A3A3CF
:103F2300A32274F712050DEAFEEBFF8A82F583A341
:103F3300E0700312325F126105024EB974F7120585
:103F43000DEAFEEBFF901B091252366010901B091D
:103F530012485A901B09E4F0A3F012144A8E828F80
:103F630083740812493E121CB4024EB974F612054A
:103F73000D901BB2E06010901B0BE0700A123F8D96
:103F8300EA4B600312289C0261FF900574E0FB90EA
:103F93000594E0FA900579E0F91227BE2274F41231
:103FA300050D74E7120AF5EAFEEBFF750B018A8231
:103FB300F583A3A3A3A3A3A3A3E0A2E25069EA24E6
:103FC3002BF582E43F125C57EA2413FAE43FFB1219
:103FD30027CAE9705290814FE064017005750B00A8
:103FE300804512405F120A4A7C0B7D007411120A4D
:103FF300CF124BE4120A611229B6E9FA740E120ABF
:10400300C7880889097808120A4E750830750900AF
:104013007808120A4EEE125EB212087912604C79D9
:10402300011232CB120A618518828519837410F04C
:1040330012604C7402120D1DAA82AB8312154CEE52
:10404300242B126887740B120D1D124AAE740D12C5
:104053000D1DE50B1262BE74190232B5EE2408126F
:1040630065DE22C082C083901BB3E06003122A285E
:104073000249CEC082C083901BAA74E8F0A3741ACD
:10408300F0A374ECF0A3741AF0A374F8F0A3741AF9
:10409300F0901CF574DBF0A3742FF0901B9474A0C4
:1040A300F0A37427F0901B2D74D6F0A37427F0901F
:1040B3001B2F74DCF0A37427F0901B8FE0440202E3
:1040C30044D2C082C083EAFCEBFD79030251D9C01C
:1040D30082C083790802637FC082C08374FE120AA0
:1040E300F5901B357484F0A37428F0901B37747E0D
:1040F300F0A37428F080077A227B1B124137901BB0
:104103002212523670F1901B2412523660097A241F
:104113007B1B12413780EF901B22E4F0A3F0901B2E
:1041230028F0A3F0A3F0901B4374C0F0A37428F00D
:104133007402801C1213CC851882851983EAF0A3BC
:10414300EB12414B1229A422F0AA18AB19227411C5
:10415300120A610249CE74F612050DE9FF74F729BC
:10416300F582E43431F583E493FEFA7B001213A263
:10417300EA4B6007EA2E1241A780267A027B0012DF
:1041830013A2EA4B601774022FF582E43432F583ED
:10419300E4938A828B83F0A3741A1245707A007BAE
:1041A300000261FF124A9DE8126179A3A3A3A3E46D
:1041B300F022E9FC740629F8EAA2E0501EE875F043
:1041C3000A84E5F0F96014740A28C399F8E9C394E2
:1041D300054004740A28F8740B28F8ECC3941340C0
:1041E30004791480027906E82979002409F850013A
:1041F300097A0A7B00120347E8F90209F6C082C074
:1042030083901B8FE05402600A121CBAE9600479A0
:1042130001800279000249CEC082C083901B8FE0E7
:1042230054026014901B28E0700A12523360091282
:10423300424050047901800279000249CE12328350
:10424300A2E722C082C08390814CE0F8901B2AE051
:10425300C39850051213A280047A007B000249CE52
:10426300C082C0831229A479000249CEC082C083D0
:1042730074FE120AF5851882851983EAF0A3EB12FE
:1042830043D9A3A3A3A3A3E0600A14605724FE6049
:104293005A024349900579E0640F601212297AE9C2
:1042A300700C124854901B3112492612068D90054A
:1042B300A1E0C0E085188285198312514DD0E01228
:1042C30043D97414125B9DFCA3E0FD7A247B1B127B
:1042D30013C6A8A8C2AF901B2A1243FD7920122946
:1042E300620241331246A7741580D91246A7A3A3CD
:1042F300A3A3E060511246A712395BC0E085188280
:10430300851983E02406F582E43BF583D0E0125B54
:104313009D2402F8A3E03400F98882F583E02401A8
:10432300FAA3E03400FB88828983EAF0A3EB125BF3
:104333009D1246E785188285198360131243AE6088
:10434300051243C04048AA18AB191229A48092123F
:1043530043AE60F21243C050211243CDFA85188256
:10436300851983A3E0C824061246A3F874171253D1
:104373006B3432F583E4936A60148518828519835C
:104383001243AE640870BF1243CD640870B8124381
:10439300CD141243E1240AC0E085188285198312E3
:1043A3004926D0E01243E1040242C71243B222126B
:1043B30048A9C82406F582E438F583E022851882EB
:1043C3008519831243B2C3940A22851882851983FF
:1043D30012367EA3E0221243EBF583888222124336
:1043E300EBC824061246D122F08518828519831260
:1043F30048A922A8A8C2AF901B29E004F0E8A2E7CD
:1044030092AF22C082C083901B39125236600812C9
:1044130046AE12068D800279000249CE74F712056A
:104423000DEAFEEBFFEA1238447401124A5CF8A36A
:10443300E0F9123426124AAEEA2435124DABC0E03D
:10444300EA2413F582E43FF583D0E0F0EA24361240
:104453004DABC0E0EA2414F582E43FF583D0E0F0ED
:10446300EA2438124DABC0E0EA2418F582E43FF5A4
:1044730083D0E0F0EA242FF582E43FF58312087934
:10448300126059EA2431124DABF9123825120A6130
:10449300E9F5087007EEFAEFFB12289CA908024E13
:1044A300B9C082C08312297AE96004792080027935
:1044B300010249CEC082C083EA24111244C8D2E06B
:1044C300800DEA240DF582E43BF583E022F0A3F0AE
:1044D3000249CEC082C0831244C5640170111245E3
:1044E3006A400C8A828B83A3E0F9122968806612E2
:1044F300455BA2E650128A828B83A3E0F9901B33BB
:1045030012492612068D804D1244C56401700D12A6
:10451300456A50088A828B83743080368A828B8303
:10452300A3E0641B8A828B83700474228024A3E03B
:10453300700D1244C5F874EC12536B3431800B12B6
:1045430044C5F8740212536B3432F583E4938A82C0
:104553008B831245700249CE12455F22EA2410F57F
:1045630082E43BF583E02212455FA2E322F0901B35
:104573008AE0F91213AE2274F712050DE9FE125206
:104583003370030246A0EE6014741B6E701AE812B7
:104593005B6939F583E064057003024678901B2C50
:1045A3001246AEA3E402467F74E96E7068E82412F3
:1045B300F582E439F583E0700B121CC0E960051243
:1045C30046F1606179EE120F76901B2B1246C8906C
:1045D3001B2B603A1246F4901B2B700B1246C81427
:1045E300F012113E0246A01246E6C2E712488F249B
:1045F3000D1246A3640370091246C1124845D2E264
:10460300F079ED120F761246D912068D8078124694
:10461300B474E9806774E16E703E121CC0E96055A2
:104623001246F1705090059BE0C0E01246C124127F
:10463300F582E438F583D0E0F090058AE0C0E0909D
:104643001B2B1246BD1246BDD0E0F090058AE00454
:10465300F079011211268045741C6E7018901B2B83
:1046630012485A901B3B12492612068D901B2BE4CD
:10467300F0A3F08028901B2B1246B4EEF0901B2B76
:1046830012485A12288A124870E054806003126359
:104693006E901B2BE4F0A3F07910122962024EB93D
:1046A3001246D122851882851983A3E0F583888277
:1046B300221246B82212492EA32212517B22901BAA
:1046C3002B12515C2212515C24121246D122F58224
:1046D300E438F583E022901B2B12485E901B2F12C7
:1046E300492A22E0F8A3E0C824101246D122901BE5
:1046F3002B124877E054042274F412050D750A0056
:10470300750B00A2AFE433FEC2AF12523360030253
:1047130047EE12492312068DE94410F8901B2280BC
:104723000985080A85090B12483812484C700302A0
:1047330047EE123945586870E8780A120A4EAC08F9
:10474300AD09123A4A120A61901B2BE508F0A3E562
:104753000912488F124845A2E750030247F5901B00
:1047630029E014F0EEA2E092AF901B2BE0240EF8A8
:10477300A3E03400F9E8FEE9FF8882F58312485A82
:10478300901B2B1243D3F912284EE9901B26125E7D
:10479300FC8E828F83E0548060181246C12413126A
:1047A30046A3F91210361246C124141246A3F91275
:1047B300102A124870A3E05401605F901B26125226
:1047C3003660451248866040124886F87900901B8F
:1047D3002612485A12034FE8C0E0124864D0E01290
:1047E3004894C3941340117402800FEEA2E092AF79
:1047F3008037901B280247647400C0E0901B2CE0B4
:10480300C812482FD0E0800D124864740112488FFB
:1048130012482F7401F07903800C901B2B1246E68B
:10482300A2E1B3E433F91211260232B8241AF58255
:10483300E438F58322E50824FBF582E50934FFF526
:104843008322125B831246D422123294E50845096F
:104853002285188285198312485E22E0FAA3E0FBC1
:10486300221251592419F582E438F58322901B2B27
:10487300124877221248A9C812487F221253793866
:10488300F5832212515924181246D1221248A1C885
:10489300221248A1F5838882A3A3A3A3E022F09068
:1048A3001B2B1248A922E0F8A3E02274F712050D8E
:1048B300EAFEEBFF12299E124DA8A2E3400A123C26
:1048C300DF700590814A800390814BE0F9EEFCEFA5
:1048D300FD7A227B1B1213DEE96038EEFAEFFB90C0
:1048E3001B3512492612068DEE240E124DAB5404CD
:1048F30070121243F6EE123427A3E05401701E1215
:1049030028968019EEFAEFFB901B2D12492612060A
:104913008D800A8E828F83A374F1124937024EB9B8
:10492300901B3712492A2212492E22E0F8A3E0F500
:104933008388822212493E12288A22F0EEFAEFFB84
:10494300220249C774F712050DEAFEEBFF790090C6
:104953001B8FE05402700CEA2433124DAB540460F5
:104963000279E8901B8FE05460700CEA2433124DF7
:10497300AB5402600279E88A828B83A3A3A3A3E0EA
:10498300F8908150E0C398500279E8EA2431124D3F
:10499300AB700CEA242E124DAB700479F5800BE951
:1049A3007005122878E9F9E96007EEFAEFFB12299E
:1049B30068024EB9C082C0838A828B83740DF01261
:1049C3001CB48007C082C083122896D083D0820291
:1049D30009F674F412050DEAFEEBFF8A82F583E40F
:1049E300F0A3124A5C540490814A7012E0F8901BC1
:1049F30029E0C398401279F11229680232B8E0F82D
:104A0300901B28E0C39850EE124A62A3E054016061
:104A130037EA2437124DABC394054033EA243312EB
:104A23004DAB540570297A3D7B1B122AB2EE243715
:104A3300F582E43FF5831232697808120A467A3D1B
:104A43007B1B124A56120A61EEFA12548680AC7925
:104A5300E880A5122AA6740422F0124A62E022EA30
:104A63002433F582E43FF5832274F612050DE9FE43
:104A73002451FAE43400FB1213A2EA4B6015EE8AC8
:104A8300828B83A3A3A3A3F0EA2451124A9D124A63
:104A9300AE80047A007B000261FFF8E43BF98A826E
:104AA3008B83A3A322126891901C07E8F0A3E9F07B
:104AB300220249C7C082C083901B4674EAF0A374E4
:104AC30028F0A3741AF0A37429F0A374F0F0A3746C
:104AD30028F0A374F6F0A37428F0A37414F0A3745D
:104AE30029F0A37408F0A37429F0A37402F0A3744B
:104AF30029F0A37420F0A37429F0A37426F0A374FF
:104B030029F0A3742CF0A37429F0A37438F0A374D0
:104B130029F0A374FCF0A37428F0A374E4F0A37445
:104B230028F0A374DEF0A37428F0901B62740EF0D7
:104B3300A37429F0A37432F0A37429F0A3746AF068
:104B4300A3742AF0A3743EF0A37429F0A37444F071
:104B5300A37429F0901B86E4F0901B89F0901B72DC
:104B6300124B747402F0901B7B124B747401024459
:104B7300D27462F0A37429F0A32274F512050D74A4
:104B8300F1120AF58518828519837402F0740112F3
:104B93000D1DE9F060047AFF7BFF7402120D1D12F4
:104BA300564475087E75091B750A007808120A4A6F
:104BB3007C0B7D007407120D1DAA82AB83124BE49C
:104BC300120A61AA18AB19121CB4740F8003124B9A
:104BD300E4120A617F030207737C0B7D007A7E7BFC
:104BE3001B12137E74032274F712050D74FD120A4F
:104BF300F5851882851983740AF07401120D1DE975
:104C0300F07402120D1DEA1262BE023C6274F612C7
:104C1300050D74F7120AF5EAFEEBFFEA124C621275
:104C23004C927402F0EA2428FCE43FFDAA18AB1965
:104C330012154CEE2431124C682433125CBD120A57
:104C43004E7402120AD779831A1A123823120A6190
:104C5300E9F5087007EEFAEFFB12289C0261F812DF
:104C6300342B740122F582E43FF5831232941251FE
:104C730032F583124C80E8F0A3E9F0EE22124C885F
:104C83008A828B8322E024FFF8A3E034FFF922F029
:104C9300A3E4F0EA1238442274F012050D12676F90
:104CA300120CC67808790C1203A87808120A467AFF
:104CB300757B1B02329C74F412050D74C6120AF53F
:104CC300900579E0640F600D851882851983742E31
:104CD30012566380227A6C7B1B1232DA12034F88DE
:104CE300088909E4F50AF50B7808120A467A6C7B01
:104CF3001B124A56120A61743A0232B574F5120550
:104D03000DEAFEEBFF8A82F583A3E0F87078EA24CC
:104D130030124DAB64026007E06403600278E8EA96
:104D23002426F582E43FF5831232D3400478E880E9
:104D330058E87052EA2426123F13EE2431124D9D97
:104D43002430124DAB6402700EEE24281268879053
:104D53000588124AAE801790058874FEF0A304F00C
:104D6300EE2428FCE43FFD7A7F7B05121558EE24E0
:104D73001B124062120A4A124BDC120A61EEFAEF6E
:104D8300FB1228D8E9F8E8600EE88E828F83A3121D
:104D93006061741712610B024BD7FAE43FFB795041
:104DA300120FFAEE22EE2410F582E43FF583E0229F
:104DB30074F612050D74F7120AF5901B89E070372B
:104DC3007401F0F91210EAAA18AB191229B0750888
:104DD3007E75091B7808120A4E750801750900785B
:104DE30008120A4E90058E1208797406120AD77AB1
:104DF300031232C9120A610261FA74F712050D1225
:104E03004FD97004A374EBF0901B89E0A2E2500326
:104E1300C2E2F0E0A2E15005124FEA80098E828FD0
:104E230083742A12610B024EB974F412050D74FED9
:104E3300120AF5124EDF125125EC8518828519836B
:104E4300125174E0F50B7015AA18AB197953120FB0
:104E5300FAEE2413FAE43FFB794A120FFA12405F89
:104E6300120A4A124BDC120A61124854A90B122887
:104E7300CC901B89E0A2E15003124FF1901B89E40F
:104E8300F074020232B574F712050DEAFEEBFF8AE5
:104E930082F583A374EBF0901B89E0A2E150077ABB
:104EA3000079EB1228D2EEFAEFFB1229088007EE05
:104EB300FAEFFB122A1C7F0102077374F712050D28
:104EC300124EDF901B86E4F0901B89F07AFF7BFF84
:104ED3008E828F83A3E0F91228CC80DA12502A7ACB
:104EE300757B1B122AB22274F712050DEAFEEBFF43
:104EF30012290280BA74F712050D125067A3A3A3F7
:104F0300E060047400800274EB124F385003C2E275
:104F1300F0E0A2E1500512503B8011A2E0500D8E4B
:104F2300828F83742AF0A374EB12610BEEFAEFFB0A
:104F33001228AE80818E828F83A3F0901B89E0A21A
:104F4300E22274F612050DEAFEEBFF901B89E0D214
:104F5300E1F079011210EA8E828F83A3E070381298
:104F630029B6E9FAEE240DF508E43FF509780812AD
:104F73000A4E7508017509007808120A4E124FABE4
:104F8300120879EE2402FCE43FFD1232C9120A61D1
:104F9300E98E828F83A3F08E828F83A3E060067AEB
:104FA30000F91228D20261FFEE240BF582E43FF5EB
:104FB300832274F712050D124FD97004A374EBF01A
:104FC300901B89E0A2E25003C2E2F0E0A2E15003A9
:104FD300124FEA024EB9EAFEEBFF79011210F08E8E
:104FE300828F83E0642022C2E1F0124FF1227A0023
:104FF3008E828F83A3E0F91228D22274F712050D53
:1050030012502A8E828F83A3A3A3A3E060047400AB
:10501300800274EB124F385003C2E2F0E0A2E15079
:105023000312503B024F2FEAFEEBFF79011210F0FF
:105033007A6C7B1B122AB222C2E11265D1E0A2E490
:10504300E433FA124FF32274F712050D125067740A
:10505300EB124F3D5003C2E2F0E0A2E15003124FC6
:10506300EA024EB9EAFEEBFF79011210F08E828F4D
:1050730083A32274F712050D12508C024EB274F7FB
:1050830012050D12508C024EB9EAFEEBFF7A6C7BCF
:105093001B122AB2EEFAEFFB12292C2274F7120527
:1050A3000D74EF120AF5EAFEEBFFEA12604D7A7F08
:1050B3007B05121546E960568518828519837409A4
:1050C300F07401120D1D74EFF01251257402120DCC
:1050D3001DEC125174A3A3E0C0E07404120D1DD0A3
:1050E300E0125161640870158E828F83A3A312515D
:1050F3004DE0C0E07405120D1DD0E080067405126A
:105103000D1DE4125EE97406120D1D125116741181
:10511300023C64AA82AB831229E6AA18AB19121CBB
:10512300B422125132F583125144FCA3E0F922EE6A
:1051330012513AFB8882222402F8E43FF9E8FAE9A3
:10514300221248A98882F583E02212515C2407F5D4
:1051530082E438F58322901B2B1248A9C8221251EE
:10516300652212516AE022F08E828F83A3A3A3A348
:105173002212617912517B2212517F22E0F8A3E0BF
:10518300F5838882A3A322C082C083122A280249FE
:10519300CEC082C083901BA67446F0A3741BF0A3F9
:1051A3007462F0A3741BF0901CEF7479F0A3742F56
:1051B300F0A374B5F0A3742EF0901B9274C6F0A301
:1051C3007428F0901B8FE044010244D2C082C08354
:1051D300EAFCEBFD790212298C0249CEC082C0831E
:1051E300790602637F74F612050D74FE120AF590B8
:1051F3001B8B12523660077A8B7B1B1229A4901BE0
:1052030091E4F09016B612523660208007AA18ABCC
:10521300191229A4901B8AE0F91213BA8B09A90960
:10522300851882851983123E8570E274020261FC3F
:10523300901B2B126891E8492274F712050DE9FAC5
:105243007B00901B8AE0F91213E4024EB974F71243
:10525300050D74F0120AF5EAFCEBFDE9FE8A828B78
:1052630083E0F8740D12536B3432F583E493C0E09A
:105273007401120D1DD0E0F0640B700DE98A828B6E
:1052830083A3F0122A0A025366E070030253666492
:105293000C6003025357741A6E700B7404120D1DC5
:1052A300E4F0A30253567404120D1D125644EA246B
:1052B30032125B4DC0E07403120D1DD0E01265BCC9
:1052C300120CEE7406120D1D120CE28C828D83A358
:1052D300A3A3A3A3A3A3A3A312688D740A120D1DF2
:1052E300E8F0A3E9125370E0541060098518828531
:1052F3001983E48013EC2412125B4DF890059BE0B4
:10530300C398851882851983F0E0C0E0740C120DF0
:105313001DD0E0F0EC2415125B4DC0E0740D120DAE
:105323001DD0E0F0EC2416125B4DC0E0740E120D9C
:105333001DD0E0F0EC2417125B4DC0E0740F120D8A
:105343001DD0E0125370A3E0540160087401120DE4
:105353001D7411F07402120D1DEEF07401120ACFC8
:10536300121CB47410023C6428F582E422F0EC129F
:1053730053793DF58322240EF582E422C082C08353
:10538300901B91E070047901800279000249CEC03C
:1053930082C083901B91E0600464027004790180F1
:1053A3000279000249CEC082C083901B91E064035E
:1053B30070047901800279000249CE74F712050D59
:1053C300901B91E012543974ED28F582741C39F561
:1053D300831258CBC2E7F0125440A3E493FE25E0B6
:1053E300FCE433FD74ED2CF582741C3D125C57EC28
:1053F3004D6005EE901B91F08A828B83E025E0FCE3
:10540300E433FDE82CF582E93DF583E493FCC454D1
:105413000F25E0F874A012536B341BF58312523638
:1054230070051229F8800CEC540F125440124926CF
:1054330012068D024EB925E0F8E433F92225E0FC8B
:10544300E82CF582E439F5832274F212050D74FE1B
:10545300120AF5890B8A088B091254EB1254DC608B
:105463001A125EF6F50A7808120A4A1254F8240250
:10547300125C4D120A61125484800312550A0238D9
:10548300B4AA0CEFFB901B8AE0F91213AE2274F05E
:1054930012050D74FE120AF5890B8A0E8B0F125436
:1054A300EBF5081254DC6027125EF6A808EA28120E
:1054B30041A7850E08850F09F50A7808120A4A12D2
:1054C30054F8125C4B120A6112548479008005125D
:1054D300550A791A74020232A1FA7B001213A28AC6
:1054E3000C8B0DAF0DEA4F2274E129F582E43431C0
:1054F300F583E49322A80B74D612536B3431F583EE
:10550300E493FC7D00EA22851882851983E50BF07C
:10551300791AAA18AB1912296822C082C083E990AC
:105523001B8A0244D274F612050D74FE120AF5EAC0
:10553300FEEBFFEA542070308039A8A8C2AF901B5D
:105543002AE0141243FF8A828B83125631901B8DFB
:10555300125644122980851882851983E0641560E8
:10556300077A8D7B1B1229A47A247B1B1213CCEAA6
:105573004B70C7EF5480700C8016901B8DEAF0A31C
:10558300EB125657901B8AE0F91213BAEA4B70EAF2
:10559300EE5410600B851882851983742D1256639F
:1055A300EEA2E0500B85188285198374241256638A
:1055B300EE5402600B851882851983742512566395
:1055C300EE5404600B851882851983742612566382
:1055D300EE5408600B85188285198374281256636C
:1055E300EE5440600D7401120D1D12564A742C12B4
:1055F3005663EE5480600D7401120D1D12564A74E9
:105603002F125663901B8B125236601BA8A8C2AF91
:10561300901B8B12485A901B8BE4F0A31243FFA3F9
:10562300EAF0A3E91256577A007B0002522E125673
:105633003522E0851882851983F022A3A3A3A3A3AF
:10564300A3EAF0A3EBF022E412564F22F08518826E
:1056530085198322F01229807A8D7B1B1229A422BB
:1056630012414B12298022C082C083901B8D12628B
:10567300B9687002EB697007901B8DE4F0A3F00228
:1056830049CE74F712050DEAFEEBFFEA4F700312E1
:105693000DC0A2AFE433F508C2AF8E828F831252DE
:1056A300366028E824FBFAE934FFFB901B8D125C7B
:1056B30059E86C7002E96D7007901B8DE4F0A3F05C
:1056C3008E828F83E4F0A3F012144A023AD0C08290
:1056D300C083901BB474ECF0A37429F0A374FEF0A0
:1056E300A37429F0A37404F0A3742AF0A374A8F09C
:1056F300A37428F0A3740AF0A3742AF0A374A2F08D
:10570300A37428F0A374AEF0A37428F0901BC274A2
:105713003AF0A3742AF0A37410F0A3742AF0A374CC
:1057230016F0A3742AF0A37422F0A3742AF0A374CE
:105733001CF0A3742AF0901BB3E40244D2C082C0CD
:1057430083900588E064FE7003A3E0F470097C7F16
:105753007D0512154C801C8A828B83A3A3A3A3A36C
:10576300A3A3A37402F090058812688D8A828B83A9
:10577300124AAE0249CEC082C083900592C3E09420
:10578300FEA3E094FF40047903800279020249CE2C
:10579300C082C0831258D48C828D8312588968705A
:1057A30039740268701C8A828B831257E2E0687036
:1057B300298A828B83A31257E2A3E068701C7901C4
:1057C300801A7403687013EC2405FC50010DEA245D
:1057D30005FA50010B121552800279000249CEA33B
:1057E300A3A3A3A3E0F88C828D83A3A3A3A3A322E3
:1057F30074F612050D7E00740A120D1DE012587D19
:10580300FF8A828B83A3A3A3A3A3A3A3A3E06F70A5
:105813006474026F704E8A828B83C082C0838882D5
:105823008983A3A3A3A3A3E0F50888828983A3A301
:10583300A3A3A3A3E0FBAA08D083D082E06A7003EA
:10584300A3E06B703088828983A3A3A3E0FA8882E4
:105853008983A3A3A3A3E0F9EA6C7002E96D701531
:105863007E01801174036F700CE82405FCE439FD9C
:10587300121552E9FEEEF90261FFF8A3E0F98882FE
:10588300F58312588922A3E01313543F540322C013
:1058930082C0838A828B83A3A3A3A3A3A3A3A3E02E
:1058A300640270169005881258CB687003A3E069F0
:1058B30070047901800F7900800BEAFCEBFD7A7F9D
:1058C3007B051215460249CE1268918A828B83E0CA
:1058D300228A828B83125889F82274F012050D7480
:1058E300FC120AF5E9851882851983F07402120DFA
:1058F3001DECF0A3EDF08A0A8B0B750800740212FD
:105903000D1DE02408125B4DC0E07401120D1DD083
:10591300E0125B9DA2E75008750EFF750FFF800A2A
:1059230090058EE0F50EA3E0F50F851882851983A7
:10593300E0C2E7125BA254206007125B6F74088019
:1059430004125B6FE4125BA254046007125B7A7467
:10595300808005125B7A7410125BA25410600612E9
:105963005B55E4800B90059BE0C0E0125B55D0E0F3
:10597300125BA2A2E050037508205408600674105D
:105983004508F5088A828B83A3A3E024FFFEA3E0E6
:1059930034FFFFEA125B60C39402E0400F640B60C4
:1059A30009E0148E828F83125B9374034508F50814
:1059B3007509009005AEE0640170118A828B83A3A0
:1059C300A3A3A3E0C39467400375091085188285D8
:1059D3001983E0F50C750D00740E780C120BAFE50E
:1059E3000D4509F509E06402701B900593E08E8272
:1059F3008F83F0900592E0C0E012382BD0E0F0EEF8
:105A030024FEFE801CE06403701DEE24F9FEEF34D7
:105A1300FFFF7CA27D05EEFAEFFB121558EE24FF83
:105A23001EEF34FFFF8003E0602F7401120D1DE0B1
:105A330060187414120D1DE0650E7004A3E0650F69
:105A4300700874404508F508800F8E828F83E50F38
:105A5300F012382BE50E125B897401120D1DE0F56F
:105A63000C750D00740A780C120BAFE50D4509F5A2
:105A730009E0640270237402120D1D1262B48E8257
:105A83008F83F07402120D1D12395DC0E012382BA2
:105A9300D0E0F0EE24FEFE8020E064037021EE24CB
:105AA300F9FEEF34FFFF7402120D1D125C59EEFA7A
:105AB300EFFB121558EE24FF1EEF34FFFF8003E0C7
:105AC300601C7414120D1DA3E08E828F83F0741476
:105AD300120D1DE0C0E012382BD0E0125B89EEF806
:105AE300EFF9E824FF1EE934FFFFE50A125B60705B
:105AF3000590057E800390058AE0FA04F0EA888227
:105B03008983126061E509125B938E82F583E50850
:105B1300F0E50A2404F8E4350BF9E50A2402FAE473
:105B2300350BFBEEFC8A828B83E0F5088882898340
